{
  "data": {
    "bytecode": {
      "linkReferences": {},
      "object": "608060405260326001553480156013575f80fd5b506104c7806100215f395ff3fe608060405234801561000f575f80fd5b506004361061004a575f3560e01c806362f14dd01461004e5780638749fecb1461006a578063c109c51f14610088578063de8b1086146100b8575b5f80fd5b610068600480360381019061006391906102ce565b6100d4565b005b610072610137565b60405161007f919061031b565b60405180910390f35b6100a2600480360381019061009d9190610334565b61013d565b6040516100af919061031b565b60405180910390f35b6100d260048036038101906100cd91906102ce565b610151565b005b805f808481526020019081526020015f205f8282546100f3919061038c565b925050819055507fb3a1a72d968ccd285c12e0454e73e774f3e64fefe2ebf5f34b1acc3acd5d5746828260405161012b9291906103bf565b60405180910390a15050565b60015481565b5f602052805f5260405f205f915090505481565b805f808481526020019081526020015f205410156101a4576040517f08c379a000000000000000000000000000000000000000000000000000000000815260040161019b90610440565b60405180910390fd5b805f808481526020019081526020015f205f8282546101c3919061045e565b925050819055507ffee0c6322ecc6287d38ab3693fbce0a9517623f62c9ff15b3bb74530df294ec9825f808581526020019081526020015f205460405161020b9291906103bf565b60405180910390a16001545f808481526020019081526020015f20541015610293575f60649050805f808581526020019081526020015f205f828254610251919061038c565b925050819055507fb3a1a72d968ccd285c12e0454e73e774f3e64fefe2ebf5f34b1acc3acd5d574683826040516102899291906103bf565b60405180910390a1505b5050565b5f80fd5b5f819050919050565b6102ad8161029b565b81146102b7575f80fd5b50565b5f813590506102c8816102a4565b92915050565b5f80604083850312156102e4576102e3610297565b5b5f6102f1858286016102ba565b9250506020610302858286016102ba565b9150509250929050565b6103158161029b565b82525050565b5f60208201905061032e5f83018461030c565b92915050565b5f6020828403121561034957610348610297565b5b5f610356848285016102ba565b91505092915050565b7f4e487b71000000000000000000000000000000000000000000000000000000005f52601160045260245ffd5b5f6103968261029b565b91506103a18361029b565b92508282019050808211156103b9576103b861035f565b5b92915050565b5f6040820190506103d25f83018561030c565b6103df602083018461030c565b9392505050565b5f82825260208201905092915050565b7f496e73756666696369656e742073746f636b00000000000000000000000000005f82015250565b5f61042a6012836103e6565b9150610435826103f6565b602082019050919050565b5f6020820190508181035f8301526104578161041e565b9050919050565b5f6104688261029b565b91506104738361029b565b925082820390508181111561048b5761048a61035f565b5b9291505056fea2646970667358221220daddc1b06c5580b93a7d07e625dcda91ff0556a3679338051318dcef2e89092c64736f6c634300081a0033",
      "opcodes": "PUSH1 0x80 PUSH1 0x40 MSTORE PUSH1 0x32 PUSH1 0x1 SSTORE CALLVALUE DUP1 ISZERO PUSH1 0x13 JUMPI PUSH0 DUP1 REVERT JUMPDEST POP PUSH2 0x4C7 DUP1 PUSH2 0x21 PUSH0 CODECOPY PUSH0 RETURN INVALID PUSH1 0x80 PUSH1 0x40 MSTORE CALLVALUE DUP1 ISZERO PUSH2 0xF JUMPI PUSH0 DUP1 REVERT JUMPDEST POP PUSH1 0x4 CALLDATASIZE LT PUSH2 0x4A JUMPI PUSH0 CALLDATALOAD PUSH1 0xE0 SHR DUP1 PUSH4 0x62F14DD0 EQ PUSH2 0x4E JUMPI DUP1 PUSH4 0x8749FECB EQ PUSH2 0x6A JUMPI DUP1 PUSH4 0xC109C51F EQ PUSH2 0x88 JUMPI DUP1 PUSH4 0xDE8B1086 EQ PUSH2 0xB8 JUMPI JUMPDEST PUSH0 DUP1 REVERT JUMPDEST PUSH2 0x68 PUSH1 0x4 DUP1 CALLDATASIZE SUB DUP2 ADD SWAP1 PUSH2 0x63 SWAP2 SWAP1 PUSH2 0x2CE JUMP JUMPDEST PUSH2 0xD4 JUMP JUMPDEST STOP JUMPDEST PUSH2 0x72 PUSH2 0x137 JUMP JUMPDEST PUSH1 0x40 MLOAD PUSH2 0x7F SWAP2 SWAP1 PUSH2 0x31B JUMP JUMPDEST PUSH1 0x40 MLOAD DUP1 SWAP2 SUB SWAP1 RETURN JUMPDEST PUSH2 0xA2 PUSH1 0x4 DUP1 CALLDATASIZE SUB DUP2 ADD SWAP1 PUSH2 0x9D SWAP2 SWAP1 PUSH2 0x334 JUMP JUMPDEST PUSH2 0x13D JUMP JUMPDEST PUSH1 0x40 MLOAD PUSH2 0xAF SWAP2 SWAP1 PUSH2 0x31B JUMP JUMPDEST PUSH1 0x40 MLOAD DUP1 SWAP2 SUB SWAP1 RETURN JUMPDEST PUSH2 0xD2 PUSH1 0x4 DUP1 CALLDATASIZE SUB DUP2 ADD SWAP1 PUSH2 0xCD SWAP2 SWAP1 PUSH2 0x2CE JUMP JUMPDEST PUSH2 0x151 JUMP JUMPDEST STOP JUMPDEST DUP1 PUSH0 DUP1 DUP5 DUP2 MSTORE PUSH1 0x20 ADD SWAP1 DUP2 MSTORE PUSH1 0x20 ADD PUSH0 KECCAK256 PUSH0 DUP3 DUP3 SLOAD PUSH2 0xF3 SWAP2 SWAP1 PUSH2 0x38C JUMP JUMPDEST SWAP3 POP POP DUP2 SWAP1 SSTORE POP PUSH32 0xB3A1A72D968CCD285C12E0454E73E774F3E64FEFE2EBF5F34B1ACC3ACD5D5746 DUP3 DUP3 PUSH1 0x40 MLOAD PUSH2 0x12B SWAP3 SWAP2 SWAP1 PUSH2 0x3BF JUMP JUMPDEST PUSH1 0x40 MLOAD DUP1 SWAP2 SUB SWAP1 LOG1 POP POP JUMP JUMPDEST PUSH1 0x1 SLOAD DUP2 JUMP JUMPDEST PUSH0 PUSH1 0x20 MSTORE DUP1 PUSH0 MSTORE PUSH1 0x40 PUSH0 KECCAK256 PUSH0 SWAP2 POP SWAP1 POP SLOAD DUP2 JUMP JUMPDEST DUP1 PUSH0 DUP1 DUP5 DUP2 MSTORE PUSH1 0x20 ADD SWAP1 DUP2 MSTORE PUSH1 0x20 ADD PUSH0 KECCAK256 SLOAD LT ISZERO PUSH2 0x1A4 JUMPI PUSH1 0x40 MLOAD PUSH32 0x8C379A000000000000000000000000000000000000000000000000000000000 DUP2 MSTORE PUSH1 0x4 ADD PUSH2 0x19B SWAP1 PUSH2 0x440 JUMP JUMPDEST PUSH1 0x40 MLOAD DUP1 SWAP2 SUB SWAP1 REVERT JUMPDEST DUP1 PUSH0 DUP1 DUP5 DUP2 MSTORE PUSH1 0x20 ADD SWAP1 DUP2 MSTORE PUSH1 0x20 ADD PUSH0 KECCAK256 PUSH0 DUP3 DUP3 SLOAD PUSH2 0x1C3 SWAP2 SWAP1 PUSH2 0x45E JUMP JUMPDEST SWAP3 POP POP DUP2 SWAP1 SSTORE POP PUSH32 0xFEE0C6322ECC6287D38AB3693FBCE0A9517623F62C9FF15B3BB74530DF294EC9 DUP3 PUSH0 DUP1 DUP6 DUP2 MSTORE PUSH1 0x20 ADD SWAP1 DUP2 MSTORE PUSH1 0x20 ADD PUSH0 KECCAK256 SLOAD PUSH1 0x40 MLOAD PUSH2 0x20B SWAP3 SWAP2 SWAP1 PUSH2 0x3BF JUMP JUMPDEST PUSH1 0x40 MLOAD DUP1 SWAP2 SUB SWAP1 LOG1 PUSH1 0x1 SLOAD PUSH0 DUP1 DUP5 DUP2 MSTORE PUSH1 0x20 ADD SWAP1 DUP2 MSTORE PUSH1 0x20 ADD PUSH0 KECCAK256 SLOAD LT ISZERO PUSH2 0x293 JUMPI PUSH0 PUSH1 0x64 SWAP1 POP DUP1 PUSH0 DUP1 DUP6 DUP2 MSTORE PUSH1 0x20 ADD SWAP1 DUP2 MSTORE PUSH1 0x20 ADD PUSH0 KECCAK256 PUSH0 DUP3 DUP3 SLOAD PUSH2 0x251 SWAP2 SWAP1 PUSH2 0x38C JUMP JUMPDEST SWAP3 POP POP DUP2 SWAP1 SSTORE POP PUSH32 0xB3A1A72D968CCD285C12E0454E73E774F3E64FEFE2EBF5F34B1ACC3ACD5D5746 DUP4 DUP3 PUSH1 0x40 MLOAD PUSH2 0x289 SWAP3 SWAP2 SWAP1 PUSH2 0x3BF JUMP JUMPDEST PUSH1 0x40 MLOAD DUP1 SWAP2 SUB SWAP1 LOG1 POP JUMPDEST POP POP JUMP JUMPDEST PUSH0 DUP1 REVERT JUMPDEST PUSH0 DUP2 SWAP1 POP SWAP2 SWAP1 POP JUMP JUMPDEST PUSH2 0x2AD DUP2 PUSH2 0x29B JUMP JUMPDEST DUP2 EQ PUSH2 0x2B7 JUMPI PUSH0 DUP1 REVERT JUMPDEST POP JUMP JUMPDEST PUSH0 DUP2 CALLDATALOAD SWAP1 POP PUSH2 0x2C8 DUP2 PUSH2 0x2A4 JUMP JUMPDEST SWAP3 SWAP2 POP POP JUMP JUMPDEST PUSH0 DUP1 PUSH1 0x40 DUP4 DUP6 SUB SLT ISZERO PUSH2 0x2E4 JUMPI PUSH2 0x2E3 PUSH2 0x297 JUMP JUMPDEST JUMPDEST PUSH0 PUSH2 0x2F1 DUP6 DUP3 DUP7 ADD PUSH2 0x2BA JUMP JUMPDEST SWAP3 POP POP PUSH1 0x20 PUSH2 0x302 DUP6 DUP3 DUP7 ADD PUSH2 0x2BA JUMP JUMPDEST SWAP2 POP POP SWAP3 POP SWAP3 SWAP1 POP JUMP JUMPDEST PUSH2 0x315 DUP2 PUSH2 0x29B JUMP JUMPDEST DUP3 MSTORE POP POP JUMP JUMPDEST PUSH0 PUSH1 0x20 DUP3 ADD SWAP1 POP PUSH2 0x32E PUSH0 DUP4 ADD DUP5 PUSH2 0x30C JUMP JUMPDEST SWAP3 SWAP2 POP POP JUMP JUMPDEST PUSH0 PUSH1 0x20 DUP3 DUP5 SUB SLT ISZERO PUSH2 0x349 JUMPI PUSH2 0x348 PUSH2 0x297 JUMP JUMPDEST JUMPDEST PUSH0 PUSH2 0x356 DUP5 DUP3 DUP6 ADD PUSH2 0x2BA JUMP JUMPDEST SWAP2 POP POP SWAP3 SWAP2 POP POP JUMP JUMPDEST PUSH32 0x4E487B7100000000000000000000000000000000000000000000000000000000 PUSH0 MSTORE PUSH1 0x11 PUSH1 0x4 MSTORE PUSH1 0x24 PUSH0 REVERT JUMPDEST PUSH0 PUSH2 0x396 DUP3 PUSH2 0x29B JUMP JUMPDEST SWAP2 POP PUSH2 0x3A1 DUP4 PUSH2 0x29B JUMP JUMPDEST SWAP3 POP DUP3 DUP3 ADD SWAP1 POP DUP1 DUP3 GT ISZERO PUSH2 0x3B9 JUMPI PUSH2 0x3B8 PUSH2 0x35F JUMP JUMPDEST JUMPDEST SWAP3 SWAP2 POP POP JUMP JUMPDEST PUSH0 PUSH1 0x40 DUP3 ADD SWAP1 POP PUSH2 0x3D2 PUSH0 DUP4 ADD DUP6 PUSH2 0x30C JUMP JUMPDEST PUSH2 0x3DF PUSH1 0x20 DUP4 ADD DUP5 PUSH2 0x30C JUMP JUMPDEST SWAP4 SWAP3 POP POP POP JUMP JUMPDEST PUSH0 DUP3 DUP3 MSTORE PUSH1 0x20 DUP3 ADD SWAP1 POP SWAP3 SWAP2 POP POP JUMP JUMPDEST PUSH32 0x496E73756666696369656E742073746F636B0000000000000000000000000000 PUSH0 DUP3 ADD MSTORE POP JUMP JUMPDEST PUSH0 PUSH2 0x42A PUSH1 0x12 DUP4 PUSH2 0x3E6 JUMP JUMPDEST SWAP2 POP PUSH2 0x435 DUP3 PUSH2 0x3F6 JUMP JUMPDEST PUSH1 0x20 DUP3 ADD SWAP1 POP SWAP2 SWAP1 POP JUMP JUMPDEST PUSH0 PUSH1 0x20 DUP3 ADD SWAP1 POP DUP2 DUP2 SUB PUSH0 DUP4 ADD MSTORE PUSH2 0x457 DUP2 PUSH2 0x41E JUMP JUMPDEST SWAP1 POP SWAP2 SWAP1 POP JUMP JUMPDEST PUSH0 PUSH2 0x468 DUP3 PUSH2 0x29B JUMP JUMPDEST SWAP2 POP PUSH2 0x473 DUP4 PUSH2 0x29B JUMP JUMPDEST SWAP3 POP DUP3 DUP3 SUB SWAP1 POP DUP2 DUP2 GT ISZERO PUSH2 0x48B JUMPI PUSH2 0x48A PUSH2 0x35F JUMP JUMPDEST JUMPDEST SWAP3 SWAP2 POP POP JUMP INVALID LOG2 PUSH5 0x6970667358 0x22 SLT KECCAK256 0xDA 0xDD 0xC1 0xB0 PUSH13 0x5580B93A7D07E625DCDA91FF05 JUMP LOG3 PUSH8 0x9338051318DCEF2E DUP10 MULMOD 0x2C PUSH5 0x736F6C6343 STOP ADDMOD BYTE STOP CALLER "
    },
    "gasEstimates": {
      "creation": {
        "codeDepositCost": "244600",
        "executionCost": "22391",
        "totalCost": "266991"
      },
      "external": {
        "decrementStock(uint256,uint256)": "infinite",
        "restockProduct(uint256,uint256)": "infinite",
        "restockThreshold()": "2425",
        "stockLevels(uint256)": "infinite"
      }
    },
    "methodIdentifiers": {
      "decrementStock(uint256,uint256)": "de8b1086",
      "restockProduct(uint256,uint256)": "62f14dd0",
      "restockThreshold()": "8749fecb",
      "stockLevels(uint256)": "c109c51f"
    }
  },
  "abi": [
    {
      "anonymous": false,
      "inputs": [
        {
          "indexed": false,
          "internalType": "uint256",
          "name": "productId",
          "type": "uint256"
        },
        {
          "indexed": false,
          "internalType": "uint256",
          "name": "quantity",
          "type": "uint256"
        }
      ],
      "name": "RestockTriggered",
      "type": "event"
    },
    {
      "anonymous": false,
      "inputs": [
        {
          "indexed": false,
          "internalType": "uint256",
          "name": "productId",
          "type": "uint256"
        },
        {
          "indexed": false,
          "internalType": "uint256",
          "name": "newStock",
          "type": "uint256"
        }
      ],
      "name": "StockDecremented",
      "type": "event"
    },
    {
      "inputs": [
        {
          "internalType": "uint256",
          "name": "productId",
          "type": "uint256"
        },
        {
          "internalType": "uint256",
          "name": "quantity",
          "type": "uint256"
        }
      ],
      "name": "decrementStock",
      "outputs": [],
      "stateMutability": "nonpayable",
      "type": "function"
    },
    {
      "inputs": [
        {
          "internalType": "uint256",
          "name": "productId",
          "type": "uint256"
        },
        {
          "internalType": "uint256",
          "name": "quantity",
          "type": "uint256"
        }
      ],
      "name": "restockProduct",
      "outputs": [],
      "stateMutability": "nonpayable",
      "type": "function"
    },
    {
      "inputs": [],
      "name": "restockThreshold",
      "outputs": [
        {
          "internalType": "uint256",
          "name": "",
          "type": "uint256"
        }
      ],
      "stateMutability": "view",
      "type": "function"
    },
    {
      "inputs": [
        {
          "internalType": "uint256",
          "name": "",
          "type": "uint256"
        }
      ],
      "name": "stockLevels",
      "outputs": [
        {
          "internalType": "uint256",
          "name": "",
          "type": "uint256"
        }
      ],
      "stateMutability": "view",
      "type": "function"
    }
  ]
}